{
  "_format": "hh-sol-artifact-1",
  "contractName": "UserManager",
  "sourceName": "contracts/UserManager.sol",
  "abi": [
    {
      "inputs": [],
      "stateMutability": "nonpayable",
      "type": "constructor"
    },
    {
      "inputs": [
        {
          "internalType": "string",
          "name": "_name",
          "type": "string"
        },
        {
          "internalType": "string",
          "name": "_lastName",
          "type": "string"
        },
        {
          "internalType": "uint256",
          "name": "_telephoneNumber",
          "type": "uint256"
        },
        {
          "internalType": "string",
          "name": "_email",
          "type": "string"
        },
        {
          "internalType": "uint256",
          "name": "_age",
          "type": "uint256"
        },
        {
          "internalType": "string",
          "name": "_ipfsHash",
          "type": "string"
        },
        {
          "internalType": "string",
          "name": "_personalLink",
          "type": "string"
        },
        {
          "internalType": "string",
          "name": "_tag",
          "type": "string"
        }
      ],
      "name": "createUser",
      "outputs": [],
      "stateMutability": "nonpayable",
      "type": "function"
    },
    {
      "inputs": [
        {
          "internalType": "uint256",
          "name": "_id",
          "type": "uint256"
        }
      ],
      "name": "deleteUser",
      "outputs": [],
      "stateMutability": "nonpayable",
      "type": "function"
    },
    {
      "inputs": [],
      "name": "getAllUsers",
      "outputs": [
        {
          "components": [
            {
              "internalType": "uint256",
              "name": "id",
              "type": "uint256"
            },
            {
              "internalType": "string",
              "name": "name",
              "type": "string"
            },
            {
              "internalType": "string",
              "name": "lastName",
              "type": "string"
            },
            {
              "internalType": "uint256",
              "name": "telephoneNumber",
              "type": "uint256"
            },
            {
              "internalType": "string",
              "name": "email",
              "type": "string"
            },
            {
              "internalType": "uint256",
              "name": "age",
              "type": "uint256"
            },
            {
              "internalType": "string",
              "name": "ipfsHash",
              "type": "string"
            },
            {
              "internalType": "string",
              "name": "personalLink",
              "type": "string"
            },
            {
              "internalType": "string",
              "name": "tags",
              "type": "string"
            }
          ],
          "internalType": "struct UserManager.User[]",
          "name": "",
          "type": "tuple[]"
        }
      ],
      "stateMutability": "view",
      "type": "function"
    },
    {
      "inputs": [
        {
          "internalType": "uint256",
          "name": "_id",
          "type": "uint256"
        }
      ],
      "name": "getUser",
      "outputs": [
        {
          "components": [
            {
              "internalType": "uint256",
              "name": "id",
              "type": "uint256"
            },
            {
              "internalType": "string",
              "name": "name",
              "type": "string"
            },
            {
              "internalType": "string",
              "name": "lastName",
              "type": "string"
            },
            {
              "internalType": "uint256",
              "name": "telephoneNumber",
              "type": "uint256"
            },
            {
              "internalType": "string",
              "name": "email",
              "type": "string"
            },
            {
              "internalType": "uint256",
              "name": "age",
              "type": "uint256"
            },
            {
              "internalType": "string",
              "name": "ipfsHash",
              "type": "string"
            },
            {
              "internalType": "string",
              "name": "personalLink",
              "type": "string"
            },
            {
              "internalType": "string",
              "name": "tags",
              "type": "string"
            }
          ],
          "internalType": "struct UserManager.User",
          "name": "",
          "type": "tuple"
        }
      ],
      "stateMutability": "view",
      "type": "function"
    },
    {
      "inputs": [
        {
          "internalType": "uint256",
          "name": "id",
          "type": "uint256"
        },
        {
          "internalType": "string",
          "name": "_name",
          "type": "string"
        },
        {
          "internalType": "string",
          "name": "_lastName",
          "type": "string"
        },
        {
          "internalType": "uint256",
          "name": "_telephoneNumber",
          "type": "uint256"
        },
        {
          "internalType": "string",
          "name": "_email",
          "type": "string"
        },
        {
          "internalType": "uint256",
          "name": "_age",
          "type": "uint256"
        },
        {
          "internalType": "string",
          "name": "_ipfsHash",
          "type": "string"
        },
        {
          "internalType": "string",
          "name": "_personalLink",
          "type": "string"
        },
        {
          "internalType": "string",
          "name": "_tag",
          "type": "string"
        }
      ],
      "name": "updateUser",
      "outputs": [],
      "stateMutability": "nonpayable",
      "type": "function"
    },
    {
      "inputs": [],
      "name": "user",
      "outputs": [
        {
          "internalType": "uint256",
          "name": "id",
          "type": "uint256"
        },
        {
          "internalType": "string",
          "name": "name",
          "type": "string"
        },
        {
          "internalType": "string",
          "name": "lastName",
          "type": "string"
        },
        {
          "internalType": "uint256",
          "name": "telephoneNumber",
          "type": "uint256"
        },
        {
          "internalType": "string",
          "name": "email",
          "type": "string"
        },
        {
          "internalType": "uint256",
          "name": "age",
          "type": "uint256"
        },
        {
          "internalType": "string",
          "name": "ipfsHash",
          "type": "string"
        },
        {
          "internalType": "string",
          "name": "personalLink",
          "type": "string"
        },
        {
          "internalType": "string",
          "name": "tags",
          "type": "string"
        }
      ],
      "stateMutability": "view",
      "type": "function"
    },
    {
      "inputs": [],
      "name": "userId",
      "outputs": [
        {
          "internalType": "uint256",
          "name": "",
          "type": "uint256"
        }
      ],
      "stateMutability": "view",
      "type": "function"
    },
    {
      "inputs": [
        {
          "internalType": "uint256",
          "name": "",
          "type": "uint256"
        }
      ],
      "name": "users",
      "outputs": [
        {
          "internalType": "uint256",
          "name": "id",
          "type": "uint256"
        },
        {
          "internalType": "string",
          "name": "name",
          "type": "string"
        },
        {
          "internalType": "string",
          "name": "lastName",
          "type": "string"
        },
        {
          "internalType": "uint256",
          "name": "telephoneNumber",
          "type": "uint256"
        },
        {
          "internalType": "string",
          "name": "email",
          "type": "string"
        },
        {
          "internalType": "uint256",
          "name": "age",
          "type": "uint256"
        },
        {
          "internalType": "string",
          "name": "ipfsHash",
          "type": "string"
        },
        {
          "internalType": "string",
          "name": "personalLink",
          "type": "string"
        },
        {
          "internalType": "string",
          "name": "tags",
          "type": "string"
        }
      ],
      "stateMutability": "view",
      "type": "function"
    }
  ],
  "bytecode": "0x60806040523480156200001157600080fd5b506000600a819055506200015a6040518060400160405280600581526020017f53696d6f6e0000000000000000000000000000000000000000000000000000008152506040518060400160405280600581526020017f4275736368000000000000000000000000000000000000000000000000000000815250640a6d5deb8e6040518060400160405280601381526020017f73696d6f6e2e6275736368406c6976652e66720000000000000000000000000081525060206040518060600160405280602e81526020016200244b602e91396040518060400160405280601e81526020017f68747470733a2f2f6769746875622e636f6d2f53696d6f6e2d427573636800008152506040518060400160405280600881526020017f736f6c69646974790000000000000000000000000000000000000000000000008152506200016060201b60201c565b6200047f565b6000604051806101200160405280600a5481526020018a81526020018981526020018881526020018781526020018681526020018581526020018481526020018381525090506009819080600181540180825580915050600190039060005260206000209060090201600090919091909150600082015181600001556020820151816001019080519060200190620001fa929190620002d4565b50604082015181600201908051906020019062000219929190620002d4565b5060608201518160030155608082015181600401908051906020019062000242929190620002d4565b5060a0820151816005015560c08201518160060190805190602001906200026b929190620002d4565b5060e08201518160070190805190602001906200028a929190620002d4565b50610100820151816008019080519060200190620002aa929190620002d4565b5050506001600a6000828254620002c2919062000384565b92505081905550505050505050505050565b828054620002e290620003eb565b90600052602060002090601f01602090048101928262000306576000855562000352565b82601f106200032157805160ff191683800117855562000352565b8280016001018555821562000352579182015b828111156200035157825182559160200191906001019062000334565b5b50905062000361919062000365565b5090565b5b808211156200038057600081600090555060010162000366565b5090565b60006200039182620003e1565b91506200039e83620003e1565b9250827fffffffffffffffffffffffffffffffffffffffffffffffffffffffffffffffff03821115620003d657620003d562000421565b5b828201905092915050565b6000819050919050565b600060028204905060018216806200040457607f821691505b602082108114156200041b576200041a62000450565b5b50919050565b7f4e487b7100000000000000000000000000000000000000000000000000000000600052601160045260246000fd5b7f4e487b7100000000000000000000000000000000000000000000000000000000600052602260045260246000fd5b611fbc806200048f6000396000f3fe608060405234801561001057600080fd5b50600436106100885760003560e01c80634f8632ba1161005b5780634f8632ba14610119578063589759191461013f578063b0467deb1461015d578063e2842d791461018d57610088565b80632ab816f11461008d578063341e6117146100a9578063365b98b2146100c557806338f14845146100fd575b600080fd5b6100a760048036038101906100a291906115d1565b6101ab565b005b6100c360048036038101906100be919061175c565b610311565b005b6100df60048036038101906100da919061172f565b6104cc565b6040516100f499989796959493929190611c16565b60405180910390f35b6101176004803603810190610112919061172f565b61085a565b005b6101216108fa565b60405161013699989796959493929190611c16565b60405180910390f35b610147610c66565b6040516101549190611bfb565b60405180910390f35b6101776004803603810190610172919061172f565b610c6c565b6040516101849190611bd9565b60405180910390f35b610195611033565b6040516101a29190611bb7565b60405180910390f35b6000604051806101200160405280600a5481526020018a8152602001898152602001888152602001878152602001868152602001858152602001848152602001838152509050600981908060018154018082558091505060019003906000526020600020906009020160009091909190915060008201518160000155602082015181600101908051906020019061024392919061141d565b50604082015181600201908051906020019061026092919061141d565b5060608201518160030155608082015181600401908051906020019061028792919061141d565b5060a0820151816005015560c08201518160060190805190602001906102ae92919061141d565b5060e08201518160070190805190602001906102cb92919061141d565b506101008201518160080190805190602001906102e992919061141d565b5050506001600a60008282546102ff9190611d89565b92505081905550505050505050505050565b8760098a8154811061032657610325611eec565b5b9060005260206000209060090201600101908051906020019061034a92919061141d565b508660098a815481106103605761035f611eec565b5b9060005260206000209060090201600201908051906020019061038492919061141d565b508560098a8154811061039a57610399611eec565b5b9060005260206000209060090201600301819055508460098a815481106103c4576103c3611eec565b5b906000526020600020906009020160040190805190602001906103e892919061141d565b508360098a815481106103fe576103fd611eec565b5b9060005260206000209060090201600501819055508260098a8154811061042857610427611eec565b5b9060005260206000209060090201600601908051906020019061044c92919061141d565b508160098a8154811061046257610461611eec565b5b9060005260206000209060090201600701908051906020019061048692919061141d565b508060098a8154811061049c5761049b611eec565b5b906000526020600020906009020160080190805190602001906104c092919061141d565b50505050505050505050565b600981815481106104dc57600080fd5b906000526020600020906009020160009150905080600001549080600101805461050590611e2b565b80601f016020809104026020016040519081016040528092919081815260200182805461053190611e2b565b801561057e5780601f106105535761010080835404028352916020019161057e565b820191906000526020600020905b81548152906001019060200180831161056157829003601f168201915b50505050509080600201805461059390611e2b565b80601f01602080910402602001604051908101604052809291908181526020018280546105bf90611e2b565b801561060c5780601f106105e15761010080835404028352916020019161060c565b820191906000526020600020905b8154815290600101906020018083116105ef57829003601f168201915b50505050509080600301549080600401805461062790611e2b565b80601f016020809104026020016040519081016040528092919081815260200182805461065390611e2b565b80156106a05780601f10610675576101008083540402835291602001916106a0565b820191906000526020600020905b81548152906001019060200180831161068357829003601f168201915b5050505050908060050154908060060180546106bb90611e2b565b80601f01602080910402602001604051908101604052809291908181526020018280546106e790611e2b565b80156107345780601f1061070957610100808354040283529160200191610734565b820191906000526020600020905b81548152906001019060200180831161071757829003601f168201915b50505050509080600701805461074990611e2b565b80601f016020809104026020016040519081016040528092919081815260200182805461077590611e2b565b80156107c25780601f10610797576101008083540402835291602001916107c2565b820191906000526020600020905b8154815290600101906020018083116107a557829003601f168201915b5050505050908060080180546107d790611e2b565b80601f016020809104026020016040519081016040528092919081815260200182805461080390611e2b565b80156108505780601f1061082557610100808354040283529160200191610850565b820191906000526020600020905b81548152906001019060200180831161083357829003601f168201915b5050505050905089565b6009818154811061086e5761086d611eec565b5b906000526020600020906009020160008082016000905560018201600061089591906114a3565b6002820160006108a591906114a3565b60038201600090556004820160006108bd91906114a3565b60058201600090556006820160006108d591906114a3565b6007820160006108e591906114a3565b6008820160006108f591906114a3565b505050565b600080600001549080600101805461091190611e2b565b80601f016020809104026020016040519081016040528092919081815260200182805461093d90611e2b565b801561098a5780601f1061095f5761010080835404028352916020019161098a565b820191906000526020600020905b81548152906001019060200180831161096d57829003601f168201915b50505050509080600201805461099f90611e2b565b80601f01602080910402602001604051908101604052809291908181526020018280546109cb90611e2b565b8015610a185780601f106109ed57610100808354040283529160200191610a18565b820191906000526020600020905b8154815290600101906020018083116109fb57829003601f168201915b505050505090806003015490806004018054610a3390611e2b565b80601f0160208091040260200160405190810160405280929190818152602001828054610a5f90611e2b565b8015610aac5780601f10610a8157610100808354040283529160200191610aac565b820191906000526020600020905b815481529060010190602001808311610a8f57829003601f168201915b505050505090806005015490806006018054610ac790611e2b565b80601f0160208091040260200160405190810160405280929190818152602001828054610af390611e2b565b8015610b405780601f10610b1557610100808354040283529160200191610b40565b820191906000526020600020905b815481529060010190602001808311610b2357829003601f168201915b505050505090806007018054610b5590611e2b565b80601f0160208091040260200160405190810160405280929190818152602001828054610b8190611e2b565b8015610bce5780601f10610ba357610100808354040283529160200191610bce565b820191906000526020600020905b815481529060010190602001808311610bb157829003601f168201915b505050505090806008018054610be390611e2b565b80601f0160208091040260200160405190810160405280929190818152602001828054610c0f90611e2b565b8015610c5c5780601f10610c3157610100808354040283529160200191610c5c565b820191906000526020600020905b815481529060010190602001808311610c3f57829003601f168201915b5050505050905089565b600a5481565b610c746114e3565b60098281548110610c8857610c87611eec565b5b90600052602060002090600902016040518061012001604052908160008201548152602001600182018054610cbc90611e2b565b80601f0160208091040260200160405190810160405280929190818152602001828054610ce890611e2b565b8015610d355780601f10610d0a57610100808354040283529160200191610d35565b820191906000526020600020905b815481529060010190602001808311610d1857829003601f168201915b50505050508152602001600282018054610d4e90611e2b565b80601f0160208091040260200160405190810160405280929190818152602001828054610d7a90611e2b565b8015610dc75780601f10610d9c57610100808354040283529160200191610dc7565b820191906000526020600020905b815481529060010190602001808311610daa57829003601f168201915b5050505050815260200160038201548152602001600482018054610dea90611e2b565b80601f0160208091040260200160405190810160405280929190818152602001828054610e1690611e2b565b8015610e635780601f10610e3857610100808354040283529160200191610e63565b820191906000526020600020905b815481529060010190602001808311610e4657829003601f168201915b5050505050815260200160058201548152602001600682018054610e8690611e2b565b80601f0160208091040260200160405190810160405280929190818152602001828054610eb290611e2b565b8015610eff5780601f10610ed457610100808354040283529160200191610eff565b820191906000526020600020905b815481529060010190602001808311610ee257829003601f168201915b50505050508152602001600782018054610f1890611e2b565b80601f0160208091040260200160405190810160405280929190818152602001828054610f4490611e2b565b8015610f915780601f10610f6657610100808354040283529160200191610f91565b820191906000526020600020905b815481529060010190602001808311610f7457829003601f168201915b50505050508152602001600882018054610faa90611e2b565b80601f0160208091040260200160405190810160405280929190818152602001828054610fd690611e2b565b80156110235780601f10610ff857610100808354040283529160200191611023565b820191906000526020600020905b81548152906001019060200180831161100657829003601f168201915b5050505050815250509050919050565b60606009805480602002602001604051908101604052809291908181526020016000905b828210156114145783829060005260206000209060090201604051806101200160405290816000820154815260200160018201805461109590611e2b565b80601f01602080910402602001604051908101604052809291908181526020018280546110c190611e2b565b801561110e5780601f106110e35761010080835404028352916020019161110e565b820191906000526020600020905b8154815290600101906020018083116110f157829003601f168201915b5050505050815260200160028201805461112790611e2b565b80601f016020809104026020016040519081016040528092919081815260200182805461115390611e2b565b80156111a05780601f10611175576101008083540402835291602001916111a0565b820191906000526020600020905b81548152906001019060200180831161118357829003601f168201915b50505050508152602001600382015481526020016004820180546111c390611e2b565b80601f01602080910402602001604051908101604052809291908181526020018280546111ef90611e2b565b801561123c5780601f106112115761010080835404028352916020019161123c565b820191906000526020600020905b81548152906001019060200180831161121f57829003601f168201915b505050505081526020016005820154815260200160068201805461125f90611e2b565b80601f016020809104026020016040519081016040528092919081815260200182805461128b90611e2b565b80156112d85780601f106112ad576101008083540402835291602001916112d8565b820191906000526020600020905b8154815290600101906020018083116112bb57829003601f168201915b505050505081526020016007820180546112f190611e2b565b80601f016020809104026020016040519081016040528092919081815260200182805461131d90611e2b565b801561136a5780601f1061133f5761010080835404028352916020019161136a565b820191906000526020600020905b81548152906001019060200180831161134d57829003601f168201915b5050505050815260200160088201805461138390611e2b565b80601f01602080910402602001604051908101604052809291908181526020018280546113af90611e2b565b80156113fc5780601f106113d1576101008083540402835291602001916113fc565b820191906000526020600020905b8154815290600101906020018083116113df57829003601f168201915b50505050508152505081526020019060010190611057565b50505050905090565b82805461142990611e2b565b90600052602060002090601f01602090048101928261144b5760008555611492565b82601f1061146457805160ff1916838001178555611492565b82800160010185558215611492579182015b82811115611491578251825591602001919060010190611476565b5b50905061149f919061152f565b5090565b5080546114af90611e2b565b6000825580601f106114c157506114e0565b601f0160209004906000526020600020908101906114df919061152f565b5b50565b6040518061012001604052806000815260200160608152602001606081526020016000815260200160608152602001600081526020016060815260200160608152602001606081525090565b5b80821115611548576000816000905550600101611530565b5090565b600061155f61155a84611cf2565b611ccd565b90508281526020810184848401111561157b5761157a611f4f565b5b611586848285611de9565b509392505050565b600082601f8301126115a3576115a2611f4a565b5b81356115b384826020860161154c565b91505092915050565b6000813590506115cb81611f6f565b92915050565b600080600080600080600080610100898b0312156115f2576115f1611f59565b5b600089013567ffffffffffffffff8111156116105761160f611f54565b5b61161c8b828c0161158e565b985050602089013567ffffffffffffffff81111561163d5761163c611f54565b5b6116498b828c0161158e565b975050604061165a8b828c016115bc565b965050606089013567ffffffffffffffff81111561167b5761167a611f54565b5b6116878b828c0161158e565b95505060806116988b828c016115bc565b94505060a089013567ffffffffffffffff8111156116b9576116b8611f54565b5b6116c58b828c0161158e565b93505060c089013567ffffffffffffffff8111156116e6576116e5611f54565b5b6116f28b828c0161158e565b92505060e089013567ffffffffffffffff81111561171357611712611f54565b5b61171f8b828c0161158e565b9150509295985092959890939650565b60006020828403121561174557611744611f59565b5b6000611753848285016115bc565b91505092915050565b60008060008060008060008060006101208a8c03121561177f5761177e611f59565b5b600061178d8c828d016115bc565b99505060208a013567ffffffffffffffff8111156117ae576117ad611f54565b5b6117ba8c828d0161158e565b98505060408a013567ffffffffffffffff8111156117db576117da611f54565b5b6117e78c828d0161158e565b97505060606117f88c828d016115bc565b96505060808a013567ffffffffffffffff81111561181957611818611f54565b5b6118258c828d0161158e565b95505060a06118368c828d016115bc565b94505060c08a013567ffffffffffffffff81111561185757611856611f54565b5b6118638c828d0161158e565b93505060e08a013567ffffffffffffffff81111561188457611883611f54565b5b6118908c828d0161158e565b9250506101008a013567ffffffffffffffff8111156118b2576118b1611f54565b5b6118be8c828d0161158e565b9150509295985092959850929598565b60006118da83836119c9565b905092915050565b60006118ed82611d33565b6118f78185611d56565b93508360208202850161190985611d23565b8060005b85811015611945578484038952815161192685826118ce565b945061193183611d49565b925060208a0199505060018101905061190d565b50829750879550505050505092915050565b600061196282611d3e565b61196c8185611d67565b935061197c818560208601611df8565b61198581611f5e565b840191505092915050565b600061199b82611d3e565b6119a58185611d78565b93506119b5818560208601611df8565b6119be81611f5e565b840191505092915050565b6000610120830160008301516119e26000860182611b99565b50602083015184820360208601526119fa8282611957565b91505060408301518482036040860152611a148282611957565b9150506060830151611a296060860182611b99565b5060808301518482036080860152611a418282611957565b91505060a0830151611a5660a0860182611b99565b5060c083015184820360c0860152611a6e8282611957565b91505060e083015184820360e0860152611a888282611957565b915050610100830151848203610100860152611aa48282611957565b9150508091505092915050565b600061012083016000830151611aca6000860182611b99565b5060208301518482036020860152611ae28282611957565b91505060408301518482036040860152611afc8282611957565b9150506060830151611b116060860182611b99565b5060808301518482036080860152611b298282611957565b91505060a0830151611b3e60a0860182611b99565b5060c083015184820360c0860152611b568282611957565b91505060e083015184820360e0860152611b708282611957565b915050610100830151848203610100860152611b8c8282611957565b9150508091505092915050565b611ba281611ddf565b82525050565b611bb181611ddf565b82525050565b60006020820190508181036000830152611bd181846118e2565b905092915050565b60006020820190508181036000830152611bf38184611ab1565b905092915050565b6000602082019050611c106000830184611ba8565b92915050565b600061012082019050611c2c600083018c611ba8565b8181036020830152611c3e818b611990565b90508181036040830152611c52818a611990565b9050611c616060830189611ba8565b8181036080830152611c738188611990565b9050611c8260a0830187611ba8565b81810360c0830152611c948186611990565b905081810360e0830152611ca88185611990565b9050818103610100830152611cbd8184611990565b90509a9950505050505050505050565b6000611cd7611ce8565b9050611ce38282611e5d565b919050565b6000604051905090565b600067ffffffffffffffff821115611d0d57611d0c611f1b565b5b611d1682611f5e565b9050602081019050919050565b6000819050602082019050919050565b600081519050919050565b600081519050919050565b6000602082019050919050565b600082825260208201905092915050565b600082825260208201905092915050565b600082825260208201905092915050565b6000611d9482611ddf565b9150611d9f83611ddf565b9250827fffffffffffffffffffffffffffffffffffffffffffffffffffffffffffffffff03821115611dd457611dd3611e8e565b5b828201905092915050565b6000819050919050565b82818337600083830152505050565b60005b83811015611e16578082015181840152602081019050611dfb565b83811115611e25576000848401525b50505050565b60006002820490506001821680611e4357607f821691505b60208210811415611e5757611e56611ebd565b5b50919050565b611e6682611f5e565b810181811067ffffffffffffffff82111715611e8557611e84611f1b565b5b80604052505050565b7f4e487b7100000000000000000000000000000000000000000000000000000000600052601160045260246000fd5b7f4e487b7100000000000000000000000000000000000000000000000000000000600052602260045260246000fd5b7f4e487b7100000000000000000000000000000000000000000000000000000000600052603260045260246000fd5b7f4e487b7100000000000000000000000000000000000000000000000000000000600052604160045260246000fd5b600080fd5b600080fd5b600080fd5b600080fd5b6000601f19601f8301169050919050565b611f7881611ddf565b8114611f8357600080fd5b5056fea264697066735822122008aacbfc7eeee9ca9ac23814808335612ca168ca7d5f8c7bd075de726f73f69564736f6c63430008070033516d646f635639745372377176526533716d43334a3741775777344435706a38676e4d506e57726e655a6a4a6644",
  "linkReferences": {},
  "deployedLinkReferences": {}
}