{
  "_format": "hh-sol-artifact-1",
  "contractName": "UserManager",
  "sourceName": "contracts/UserManager.sol",
  "abi": [
    {
      "inputs": [],
      "stateMutability": "nonpayable",
      "type": "constructor"
    },
    {
      "anonymous": false,
      "inputs": [
        {
          "indexed": true,
          "internalType": "uint256",
          "name": "id",
          "type": "uint256"
        },
        {
          "indexed": false,
          "internalType": "string",
          "name": "_name",
          "type": "string"
        },
        {
          "indexed": false,
          "internalType": "string",
          "name": "_lastName",
          "type": "string"
        },
        {
          "indexed": false,
          "internalType": "uint256",
          "name": "_telephoneNumber",
          "type": "uint256"
        },
        {
          "indexed": false,
          "internalType": "string",
          "name": "_email",
          "type": "string"
        },
        {
          "indexed": false,
          "internalType": "uint256",
          "name": "_age",
          "type": "uint256"
        },
        {
          "indexed": false,
          "internalType": "string",
          "name": "_ipfsHash",
          "type": "string"
        },
        {
          "indexed": false,
          "internalType": "string",
          "name": "_personalLink",
          "type": "string"
        },
        {
          "indexed": false,
          "internalType": "string",
          "name": "_tag",
          "type": "string"
        }
      ],
      "name": "UserAction",
      "type": "event"
    },
    {
      "inputs": [
        {
          "internalType": "string",
          "name": "_name",
          "type": "string"
        },
        {
          "internalType": "string",
          "name": "_lastName",
          "type": "string"
        },
        {
          "internalType": "uint256",
          "name": "_telephoneNumber",
          "type": "uint256"
        },
        {
          "internalType": "string",
          "name": "_email",
          "type": "string"
        },
        {
          "internalType": "uint256",
          "name": "_age",
          "type": "uint256"
        },
        {
          "internalType": "string",
          "name": "_ipfsHash",
          "type": "string"
        },
        {
          "internalType": "string",
          "name": "_personalLink",
          "type": "string"
        },
        {
          "internalType": "string",
          "name": "_tag",
          "type": "string"
        }
      ],
      "name": "createUser",
      "outputs": [],
      "stateMutability": "nonpayable",
      "type": "function"
    },
    {
      "inputs": [
        {
          "internalType": "uint256",
          "name": "_id",
          "type": "uint256"
        }
      ],
      "name": "deleteUser",
      "outputs": [],
      "stateMutability": "nonpayable",
      "type": "function"
    },
    {
      "inputs": [],
      "name": "getAllUsers",
      "outputs": [
        {
          "components": [
            {
              "internalType": "uint256",
              "name": "id",
              "type": "uint256"
            },
            {
              "internalType": "string",
              "name": "name",
              "type": "string"
            },
            {
              "internalType": "string",
              "name": "lastName",
              "type": "string"
            },
            {
              "internalType": "uint256",
              "name": "telephoneNumber",
              "type": "uint256"
            },
            {
              "internalType": "string",
              "name": "email",
              "type": "string"
            },
            {
              "internalType": "uint256",
              "name": "age",
              "type": "uint256"
            },
            {
              "internalType": "string",
              "name": "ipfsHash",
              "type": "string"
            },
            {
              "internalType": "string",
              "name": "personalLink",
              "type": "string"
            },
            {
              "internalType": "string",
              "name": "tags",
              "type": "string"
            }
          ],
          "internalType": "struct UserManager.User[]",
          "name": "",
          "type": "tuple[]"
        }
      ],
      "stateMutability": "view",
      "type": "function"
    },
    {
      "inputs": [
        {
          "internalType": "uint256",
          "name": "_id",
          "type": "uint256"
        }
      ],
      "name": "getUser",
      "outputs": [
        {
          "components": [
            {
              "internalType": "uint256",
              "name": "id",
              "type": "uint256"
            },
            {
              "internalType": "string",
              "name": "name",
              "type": "string"
            },
            {
              "internalType": "string",
              "name": "lastName",
              "type": "string"
            },
            {
              "internalType": "uint256",
              "name": "telephoneNumber",
              "type": "uint256"
            },
            {
              "internalType": "string",
              "name": "email",
              "type": "string"
            },
            {
              "internalType": "uint256",
              "name": "age",
              "type": "uint256"
            },
            {
              "internalType": "string",
              "name": "ipfsHash",
              "type": "string"
            },
            {
              "internalType": "string",
              "name": "personalLink",
              "type": "string"
            },
            {
              "internalType": "string",
              "name": "tags",
              "type": "string"
            }
          ],
          "internalType": "struct UserManager.User",
          "name": "",
          "type": "tuple"
        }
      ],
      "stateMutability": "view",
      "type": "function"
    },
    {
      "inputs": [
        {
          "internalType": "uint256",
          "name": "id",
          "type": "uint256"
        },
        {
          "internalType": "string",
          "name": "_name",
          "type": "string"
        },
        {
          "internalType": "string",
          "name": "_lastName",
          "type": "string"
        },
        {
          "internalType": "uint256",
          "name": "_telephoneNumber",
          "type": "uint256"
        },
        {
          "internalType": "string",
          "name": "_email",
          "type": "string"
        },
        {
          "internalType": "uint256",
          "name": "_age",
          "type": "uint256"
        },
        {
          "internalType": "string",
          "name": "_ipfsHash",
          "type": "string"
        },
        {
          "internalType": "string",
          "name": "_personalLink",
          "type": "string"
        },
        {
          "internalType": "string",
          "name": "_tag",
          "type": "string"
        }
      ],
      "name": "updateUser",
      "outputs": [],
      "stateMutability": "nonpayable",
      "type": "function"
    },
    {
      "inputs": [],
      "name": "user",
      "outputs": [
        {
          "internalType": "uint256",
          "name": "id",
          "type": "uint256"
        },
        {
          "internalType": "string",
          "name": "name",
          "type": "string"
        },
        {
          "internalType": "string",
          "name": "lastName",
          "type": "string"
        },
        {
          "internalType": "uint256",
          "name": "telephoneNumber",
          "type": "uint256"
        },
        {
          "internalType": "string",
          "name": "email",
          "type": "string"
        },
        {
          "internalType": "uint256",
          "name": "age",
          "type": "uint256"
        },
        {
          "internalType": "string",
          "name": "ipfsHash",
          "type": "string"
        },
        {
          "internalType": "string",
          "name": "personalLink",
          "type": "string"
        },
        {
          "internalType": "string",
          "name": "tags",
          "type": "string"
        }
      ],
      "stateMutability": "view",
      "type": "function"
    },
    {
      "inputs": [],
      "name": "userId",
      "outputs": [
        {
          "internalType": "uint256",
          "name": "",
          "type": "uint256"
        }
      ],
      "stateMutability": "view",
      "type": "function"
    },
    {
      "inputs": [
        {
          "internalType": "uint256",
          "name": "",
          "type": "uint256"
        }
      ],
      "name": "users",
      "outputs": [
        {
          "internalType": "uint256",
          "name": "id",
          "type": "uint256"
        },
        {
          "internalType": "string",
          "name": "name",
          "type": "string"
        },
        {
          "internalType": "string",
          "name": "lastName",
          "type": "string"
        },
        {
          "internalType": "uint256",
          "name": "telephoneNumber",
          "type": "uint256"
        },
        {
          "internalType": "string",
          "name": "email",
          "type": "string"
        },
        {
          "internalType": "uint256",
          "name": "age",
          "type": "uint256"
        },
        {
          "internalType": "string",
          "name": "ipfsHash",
          "type": "string"
        },
        {
          "internalType": "string",
          "name": "personalLink",
          "type": "string"
        },
        {
          "internalType": "string",
          "name": "tags",
          "type": "string"
        }
      ],
      "stateMutability": "view",
      "type": "function"
    }
  ],
  "bytecode": "0x60806040523480156200001157600080fd5b506000600a819055506200015a6040518060400160405280600581526020017f53696d6f6e0000000000000000000000000000000000000000000000000000008152506040518060400160405280600581526020017f4275736368000000000000000000000000000000000000000000000000000000815250640a6d5deb8e6040518060400160405280601381526020017f73696d6f6e2e6275736368406c6976652e66720000000000000000000000000081525060206040518060600160405280602e815260200162002738602e91396040518060400160405280601e81526020017f68747470733a2f2f6769746875622e636f6d2f53696d6f6e2d427573636800008152506040518060400160405280600881526020017f736f6c69646974790000000000000000000000000000000000000000000000008152506200016060201b60201c565b62000636565b6000604051806101200160405280600a5481526020018a81526020018981526020018881526020018781526020018681526020018581526020018481526020018381525090506009819080600181540180825580915050600190039060005260206000209060090201600090919091909150600082015181600001556020820151816001019080519060200190620001fa9291906200031e565b506040820151816002019080519060200190620002199291906200031e565b50606082015181600301556080820151816004019080519060200190620002429291906200031e565b5060a0820151816005015560c08201518160060190805190602001906200026b9291906200031e565b5060e08201518160070190805190602001906200028a9291906200031e565b50610100820151816008019080519060200190620002aa9291906200031e565b505050600a547f3dd377719e882daf64c7a0fd8f50cbc0d8d6c3bedd0a84716ab1d90bfea7c9638a8a8a8a8a8a8a8a604051620002ef98979695949392919062000420565b60405180910390a26001600a60008282546200030c9190620004f4565b92505081905550505050505050505050565b8280546200032c9062000591565b90600052602060002090601f0160209004810192826200035057600085556200039c565b82601f106200036b57805160ff19168380011785556200039c565b828001600101855582156200039c579182015b828111156200039b5782518255916020019190600101906200037e565b5b509050620003ab9190620003af565b5090565b5b80821115620003ca576000816000905550600101620003b0565b5090565b6000620003db82620004d8565b620003e78185620004e3565b9350620003f98185602086016200055b565b620004048162000625565b840191505092915050565b6200041a8162000551565b82525050565b60006101008201905081810360008301526200043d818b620003ce565b9050818103602083015262000453818a620003ce565b90506200046460408301896200040f565b8181036060830152620004788188620003ce565b90506200048960808301876200040f565b81810360a08301526200049d8186620003ce565b905081810360c0830152620004b38185620003ce565b905081810360e0830152620004c98184620003ce565b90509998505050505050505050565b600081519050919050565b600082825260208201905092915050565b6000620005018262000551565b91506200050e8362000551565b9250827fffffffffffffffffffffffffffffffffffffffffffffffffffffffffffffffff03821115620005465762000545620005c7565b5b828201905092915050565b6000819050919050565b60005b838110156200057b5780820151818401526020810190506200055e565b838111156200058b576000848401525b50505050565b60006002820490506001821680620005aa57607f821691505b60208210811415620005c157620005c0620005f6565b5b50919050565b7f4e487b7100000000000000000000000000000000000000000000000000000000600052601160045260246000fd5b7f4e487b7100000000000000000000000000000000000000000000000000000000600052602260045260246000fd5b6000601f19601f8301169050919050565b6120f280620006466000396000f3fe608060405234801561001057600080fd5b50600436106100885760003560e01c80634f8632ba1161005b5780634f8632ba14610119578063589759191461013f578063b0467deb1461015d578063e2842d791461018d57610088565b80632ab816f11461008d578063341e6117146100a9578063365b98b2146100c557806338f14845146100fd575b600080fd5b6100a760048036038101906100a2919061165f565b6101ab565b005b6100c360048036038101906100be91906117ea565b610359565b005b6100df60048036038101906100da91906117bd565b61055a565b6040516100f499989796959493929190611d4c565b60405180910390f35b610117600480360381019061011291906117bd565b6108e8565b005b610121610988565b60405161013699989796959493929190611d4c565b60405180910390f35b610147610cf4565b6040516101549190611d31565b60405180910390f35b610177600480360381019061017291906117bd565b610cfa565b6040516101849190611d0f565b60405180910390f35b6101956110c1565b6040516101a29190611c45565b60405180910390f35b6000604051806101200160405280600a5481526020018a815260200189815260200188815260200187815260200186815260200185815260200184815260200183815250905060098190806001815401808255809150506001900390600052602060002090600902016000909190919091506000820151816000015560208201518160010190805190602001906102439291906114ab565b5060408201518160020190805190602001906102609291906114ab565b506060820151816003015560808201518160040190805190602001906102879291906114ab565b5060a0820151816005015560c08201518160060190805190602001906102ae9291906114ab565b5060e08201518160070190805190602001906102cb9291906114ab565b506101008201518160080190805190602001906102e99291906114ab565b505050600a547f3dd377719e882daf64c7a0fd8f50cbc0d8d6c3bedd0a84716ab1d90bfea7c9638a8a8a8a8a8a8a8a60405161032c989796959493929190611c67565b60405180910390a26001600a60008282546103479190611ebf565b92505081905550505050505050505050565b8760098a8154811061036e5761036d612022565b5b906000526020600020906009020160010190805190602001906103929291906114ab565b508660098a815481106103a8576103a7612022565b5b906000526020600020906009020160020190805190602001906103cc9291906114ab565b508560098a815481106103e2576103e1612022565b5b9060005260206000209060090201600301819055508460098a8154811061040c5761040b612022565b5b906000526020600020906009020160040190805190602001906104309291906114ab565b508360098a8154811061044657610445612022565b5b9060005260206000209060090201600501819055508260098a815481106104705761046f612022565b5b906000526020600020906009020160060190805190602001906104949291906114ab565b508160098a815481106104aa576104a9612022565b5b906000526020600020906009020160070190805190602001906104ce9291906114ab565b508060098a815481106104e4576104e3612022565b5b906000526020600020906009020160080190805190602001906105089291906114ab565b50887f3dd377719e882daf64c7a0fd8f50cbc0d8d6c3bedd0a84716ab1d90bfea7c9638989898989898989604051610547989796959493929190611c67565b60405180910390a2505050505050505050565b6009818154811061056a57600080fd5b906000526020600020906009020160009150905080600001549080600101805461059390611f61565b80601f01602080910402602001604051908101604052809291908181526020018280546105bf90611f61565b801561060c5780601f106105e15761010080835404028352916020019161060c565b820191906000526020600020905b8154815290600101906020018083116105ef57829003601f168201915b50505050509080600201805461062190611f61565b80601f016020809104026020016040519081016040528092919081815260200182805461064d90611f61565b801561069a5780601f1061066f5761010080835404028352916020019161069a565b820191906000526020600020905b81548152906001019060200180831161067d57829003601f168201915b5050505050908060030154908060040180546106b590611f61565b80601f01602080910402602001604051908101604052809291908181526020018280546106e190611f61565b801561072e5780601f106107035761010080835404028352916020019161072e565b820191906000526020600020905b81548152906001019060200180831161071157829003601f168201915b50505050509080600501549080600601805461074990611f61565b80601f016020809104026020016040519081016040528092919081815260200182805461077590611f61565b80156107c25780601f10610797576101008083540402835291602001916107c2565b820191906000526020600020905b8154815290600101906020018083116107a557829003601f168201915b5050505050908060070180546107d790611f61565b80601f016020809104026020016040519081016040528092919081815260200182805461080390611f61565b80156108505780601f1061082557610100808354040283529160200191610850565b820191906000526020600020905b81548152906001019060200180831161083357829003601f168201915b50505050509080600801805461086590611f61565b80601f016020809104026020016040519081016040528092919081815260200182805461089190611f61565b80156108de5780601f106108b3576101008083540402835291602001916108de565b820191906000526020600020905b8154815290600101906020018083116108c157829003601f168201915b5050505050905089565b600981815481106108fc576108fb612022565b5b90600052602060002090600902016000808201600090556001820160006109239190611531565b6002820160006109339190611531565b600382016000905560048201600061094b9190611531565b60058201600090556006820160006109639190611531565b6007820160006109739190611531565b6008820160006109839190611531565b505050565b600080600001549080600101805461099f90611f61565b80601f01602080910402602001604051908101604052809291908181526020018280546109cb90611f61565b8015610a185780601f106109ed57610100808354040283529160200191610a18565b820191906000526020600020905b8154815290600101906020018083116109fb57829003601f168201915b505050505090806002018054610a2d90611f61565b80601f0160208091040260200160405190810160405280929190818152602001828054610a5990611f61565b8015610aa65780601f10610a7b57610100808354040283529160200191610aa6565b820191906000526020600020905b815481529060010190602001808311610a8957829003601f168201915b505050505090806003015490806004018054610ac190611f61565b80601f0160208091040260200160405190810160405280929190818152602001828054610aed90611f61565b8015610b3a5780601f10610b0f57610100808354040283529160200191610b3a565b820191906000526020600020905b815481529060010190602001808311610b1d57829003601f168201915b505050505090806005015490806006018054610b5590611f61565b80601f0160208091040260200160405190810160405280929190818152602001828054610b8190611f61565b8015610bce5780601f10610ba357610100808354040283529160200191610bce565b820191906000526020600020905b815481529060010190602001808311610bb157829003601f168201915b505050505090806007018054610be390611f61565b80601f0160208091040260200160405190810160405280929190818152602001828054610c0f90611f61565b8015610c5c5780601f10610c3157610100808354040283529160200191610c5c565b820191906000526020600020905b815481529060010190602001808311610c3f57829003601f168201915b505050505090806008018054610c7190611f61565b80601f0160208091040260200160405190810160405280929190818152602001828054610c9d90611f61565b8015610cea5780601f10610cbf57610100808354040283529160200191610cea565b820191906000526020600020905b815481529060010190602001808311610ccd57829003601f168201915b5050505050905089565b600a5481565b610d02611571565b60098281548110610d1657610d15612022565b5b90600052602060002090600902016040518061012001604052908160008201548152602001600182018054610d4a90611f61565b80601f0160208091040260200160405190810160405280929190818152602001828054610d7690611f61565b8015610dc35780601f10610d9857610100808354040283529160200191610dc3565b820191906000526020600020905b815481529060010190602001808311610da657829003601f168201915b50505050508152602001600282018054610ddc90611f61565b80601f0160208091040260200160405190810160405280929190818152602001828054610e0890611f61565b8015610e555780601f10610e2a57610100808354040283529160200191610e55565b820191906000526020600020905b815481529060010190602001808311610e3857829003601f168201915b5050505050815260200160038201548152602001600482018054610e7890611f61565b80601f0160208091040260200160405190810160405280929190818152602001828054610ea490611f61565b8015610ef15780601f10610ec657610100808354040283529160200191610ef1565b820191906000526020600020905b815481529060010190602001808311610ed457829003601f168201915b5050505050815260200160058201548152602001600682018054610f1490611f61565b80601f0160208091040260200160405190810160405280929190818152602001828054610f4090611f61565b8015610f8d5780601f10610f6257610100808354040283529160200191610f8d565b820191906000526020600020905b815481529060010190602001808311610f7057829003601f168201915b50505050508152602001600782018054610fa690611f61565b80601f0160208091040260200160405190810160405280929190818152602001828054610fd290611f61565b801561101f5780601f10610ff45761010080835404028352916020019161101f565b820191906000526020600020905b81548152906001019060200180831161100257829003601f168201915b5050505050815260200160088201805461103890611f61565b80601f016020809104026020016040519081016040528092919081815260200182805461106490611f61565b80156110b15780601f10611086576101008083540402835291602001916110b1565b820191906000526020600020905b81548152906001019060200180831161109457829003601f168201915b5050505050815250509050919050565b60606009805480602002602001604051908101604052809291908181526020016000905b828210156114a25783829060005260206000209060090201604051806101200160405290816000820154815260200160018201805461112390611f61565b80601f016020809104026020016040519081016040528092919081815260200182805461114f90611f61565b801561119c5780601f106111715761010080835404028352916020019161119c565b820191906000526020600020905b81548152906001019060200180831161117f57829003601f168201915b505050505081526020016002820180546111b590611f61565b80601f01602080910402602001604051908101604052809291908181526020018280546111e190611f61565b801561122e5780601f106112035761010080835404028352916020019161122e565b820191906000526020600020905b81548152906001019060200180831161121157829003601f168201915b505050505081526020016003820154815260200160048201805461125190611f61565b80601f016020809104026020016040519081016040528092919081815260200182805461127d90611f61565b80156112ca5780601f1061129f576101008083540402835291602001916112ca565b820191906000526020600020905b8154815290600101906020018083116112ad57829003601f168201915b50505050508152602001600582015481526020016006820180546112ed90611f61565b80601f016020809104026020016040519081016040528092919081815260200182805461131990611f61565b80156113665780601f1061133b57610100808354040283529160200191611366565b820191906000526020600020905b81548152906001019060200180831161134957829003601f168201915b5050505050815260200160078201805461137f90611f61565b80601f01602080910402602001604051908101604052809291908181526020018280546113ab90611f61565b80156113f85780601f106113cd576101008083540402835291602001916113f8565b820191906000526020600020905b8154815290600101906020018083116113db57829003601f168201915b5050505050815260200160088201805461141190611f61565b80601f016020809104026020016040519081016040528092919081815260200182805461143d90611f61565b801561148a5780601f1061145f5761010080835404028352916020019161148a565b820191906000526020600020905b81548152906001019060200180831161146d57829003601f168201915b505050505081525050815260200190600101906110e5565b50505050905090565b8280546114b790611f61565b90600052602060002090601f0160209004810192826114d95760008555611520565b82601f106114f257805160ff1916838001178555611520565b82800160010185558215611520579182015b8281111561151f578251825591602001919060010190611504565b5b50905061152d91906115bd565b5090565b50805461153d90611f61565b6000825580601f1061154f575061156e565b601f01602090049060005260206000209081019061156d91906115bd565b5b50565b6040518061012001604052806000815260200160608152602001606081526020016000815260200160608152602001600081526020016060815260200160608152602001606081525090565b5b808211156115d65760008160009055506001016115be565b5090565b60006115ed6115e884611e28565b611e03565b90508281526020810184848401111561160957611608612085565b5b611614848285611f1f565b509392505050565b600082601f83011261163157611630612080565b5b81356116418482602086016115da565b91505092915050565b600081359050611659816120a5565b92915050565b600080600080600080600080610100898b0312156116805761167f61208f565b5b600089013567ffffffffffffffff81111561169e5761169d61208a565b5b6116aa8b828c0161161c565b985050602089013567ffffffffffffffff8111156116cb576116ca61208a565b5b6116d78b828c0161161c565b97505060406116e88b828c0161164a565b965050606089013567ffffffffffffffff8111156117095761170861208a565b5b6117158b828c0161161c565b95505060806117268b828c0161164a565b94505060a089013567ffffffffffffffff8111156117475761174661208a565b5b6117538b828c0161161c565b93505060c089013567ffffffffffffffff8111156117745761177361208a565b5b6117808b828c0161161c565b92505060e089013567ffffffffffffffff8111156117a1576117a061208a565b5b6117ad8b828c0161161c565b9150509295985092959890939650565b6000602082840312156117d3576117d261208f565b5b60006117e18482850161164a565b91505092915050565b60008060008060008060008060006101208a8c03121561180d5761180c61208f565b5b600061181b8c828d0161164a565b99505060208a013567ffffffffffffffff81111561183c5761183b61208a565b5b6118488c828d0161161c565b98505060408a013567ffffffffffffffff8111156118695761186861208a565b5b6118758c828d0161161c565b97505060606118868c828d0161164a565b96505060808a013567ffffffffffffffff8111156118a7576118a661208a565b5b6118b38c828d0161161c565b95505060a06118c48c828d0161164a565b94505060c08a013567ffffffffffffffff8111156118e5576118e461208a565b5b6118f18c828d0161161c565b93505060e08a013567ffffffffffffffff8111156119125761191161208a565b5b61191e8c828d0161161c565b9250506101008a013567ffffffffffffffff8111156119405761193f61208a565b5b61194c8c828d0161161c565b9150509295985092959850929598565b60006119688383611a57565b905092915050565b600061197b82611e69565b6119858185611e8c565b93508360208202850161199785611e59565b8060005b858110156119d357848403895281516119b4858261195c565b94506119bf83611e7f565b925060208a0199505060018101905061199b565b50829750879550505050505092915050565b60006119f082611e74565b6119fa8185611e9d565b9350611a0a818560208601611f2e565b611a1381612094565b840191505092915050565b6000611a2982611e74565b611a338185611eae565b9350611a43818560208601611f2e565b611a4c81612094565b840191505092915050565b600061012083016000830151611a706000860182611c27565b5060208301518482036020860152611a8882826119e5565b91505060408301518482036040860152611aa282826119e5565b9150506060830151611ab76060860182611c27565b5060808301518482036080860152611acf82826119e5565b91505060a0830151611ae460a0860182611c27565b5060c083015184820360c0860152611afc82826119e5565b91505060e083015184820360e0860152611b1682826119e5565b915050610100830151848203610100860152611b3282826119e5565b9150508091505092915050565b600061012083016000830151611b586000860182611c27565b5060208301518482036020860152611b7082826119e5565b91505060408301518482036040860152611b8a82826119e5565b9150506060830151611b9f6060860182611c27565b5060808301518482036080860152611bb782826119e5565b91505060a0830151611bcc60a0860182611c27565b5060c083015184820360c0860152611be482826119e5565b91505060e083015184820360e0860152611bfe82826119e5565b915050610100830151848203610100860152611c1a82826119e5565b9150508091505092915050565b611c3081611f15565b82525050565b611c3f81611f15565b82525050565b60006020820190508181036000830152611c5f8184611970565b905092915050565b6000610100820190508181036000830152611c82818b611a1e565b90508181036020830152611c96818a611a1e565b9050611ca56040830189611c36565b8181036060830152611cb78188611a1e565b9050611cc66080830187611c36565b81810360a0830152611cd88186611a1e565b905081810360c0830152611cec8185611a1e565b905081810360e0830152611d008184611a1e565b90509998505050505050505050565b60006020820190508181036000830152611d298184611b3f565b905092915050565b6000602082019050611d466000830184611c36565b92915050565b600061012082019050611d62600083018c611c36565b8181036020830152611d74818b611a1e565b90508181036040830152611d88818a611a1e565b9050611d976060830189611c36565b8181036080830152611da98188611a1e565b9050611db860a0830187611c36565b81810360c0830152611dca8186611a1e565b905081810360e0830152611dde8185611a1e565b9050818103610100830152611df38184611a1e565b90509a9950505050505050505050565b6000611e0d611e1e565b9050611e198282611f93565b919050565b6000604051905090565b600067ffffffffffffffff821115611e4357611e42612051565b5b611e4c82612094565b9050602081019050919050565b6000819050602082019050919050565b600081519050919050565b600081519050919050565b6000602082019050919050565b600082825260208201905092915050565b600082825260208201905092915050565b600082825260208201905092915050565b6000611eca82611f15565b9150611ed583611f15565b9250827fffffffffffffffffffffffffffffffffffffffffffffffffffffffffffffffff03821115611f0a57611f09611fc4565b5b828201905092915050565b6000819050919050565b82818337600083830152505050565b60005b83811015611f4c578082015181840152602081019050611f31565b83811115611f5b576000848401525b50505050565b60006002820490506001821680611f7957607f821691505b60208210811415611f8d57611f8c611ff3565b5b50919050565b611f9c82612094565b810181811067ffffffffffffffff82111715611fbb57611fba612051565b5b80604052505050565b7f4e487b7100000000000000000000000000000000000000000000000000000000600052601160045260246000fd5b7f4e487b7100000000000000000000000000000000000000000000000000000000600052602260045260246000fd5b7f4e487b7100000000000000000000000000000000000000000000000000000000600052603260045260246000fd5b7f4e487b7100000000000000000000000000000000000000000000000000000000600052604160045260246000fd5b600080fd5b600080fd5b600080fd5b600080fd5b6000601f19601f8301169050919050565b6120ae81611f15565b81146120b957600080fd5b5056fea264697066735822122074e66b3cd07b54c1a45bf62ba2f472d1f4179385a378f9d523ab9d7d78241e2c64736f6c63430008070033516d646f635639745372377176526533716d43334a3741775777344435706a38676e4d506e57726e655a6a4a6644",
  "linkReferences": {},
  "deployedLinkReferences": {}
}